:100000000C9462000C948A000C948A000C948A0070
:100010000C948A000C948A000C948A000C948A0038
:100020000C948A000C948A000C948A000C948A0028
:100030000C948A000C948A000C948A000C948A0018
:100040000C943C030C948A000C940A030C94E40274
:100050000C948A000C948A000C948A000C948A00F8
:100060000C948A000C948A000000000023002600F3
:10007000290000000008000201000003040700003E
:1000800000000000000000000000250028002B00F8
:1000900000000000240027002A00040404040404D3
:1000A0000404020202020202030303030303010227
:1000B00004081020408001020408102001020408F6
:1000C0001020260511241FBECFEFD8E0DEBFCDBF24
:1000D00021E0AAE2B1E001C01D92A53EB207E1F71E
:1000E00011E0A0E0B1E0E0E7FFE002C005900D9272
:1000F000AA32B107D9F710E0C2E6D0E004C02197D8
:10010000FE010E94B405C136D107C9F70E948603DB
:100110000C94B6070C940000CF93DF93EEEAF0E066
:100120009491EAE9F0E02491222361F130E0220F7A
:10013000331FF901E057FF4FA591B491F901EA5738
:10014000FF4FC591D491811109C02FB7F8948C91BC
:10015000909589238C93E8819E230BC0823061F4B3
:100160002FB7F8948C91392F309583238C93E881A5
:100170009E2B98832FBF06C08FB7F894EC919E2BCF
:100180009C938FBFDF91CF910895CF92DF92EF9232
:10019000FF920F931F93CF93DF936C017A018B0132
:1001A000C0E0D0E0CE15DF0581F0D8016D918D0162
:1001B000D601ED91FC910190F081E02DC6010995E9
:1001C000892B11F02196EECF7E01C701DF91CF91EF
:1001D0001F910F91FF90EF90DF90CF9008950895B9
:1001E00080E090E00895FC01538D448D252F30E090
:1001F000842F90E0821B930B541710F0CF96089534
:1002000001970895FC01918D828D981761F0828D80
:10021000DF01A80FB11D5D968C91928D9F5F9F733A
:10022000928F90E008958FEF9FEF0895FC01918DDC
:10023000828D981731F0828DE80FF11D858D90E049
:1002400008958FEF9FEF0895FC01918D228D892FE6
:1002500090E0805C9F4F821B91098F7399270895CE
:1002600083E391E00E94240121E0892B09F420E03E
:10027000822F0895FC01848DDF01A80FB11DA35AC0
:10028000BF4F2C91848D90E001968F739927848FB6
:10029000A689B7892C93A089B1898C9183708064D9
:1002A0008C93938D848D981306C00288F389E02D7A
:1002B00080818F7D80830895EF92FF920F931F932B
:1002C000CF93DF93EC0181E0888F9B8D8C8D981309
:1002D00005C0E889F989808185FD26C0F62E0B8D41
:1002E00010E00F5F1F4F0F731127E02E8C8DE81267
:1002F0000CC00FB607FCFACFE889F989808185FF29
:10030000F5CFCE010E943A01F1CF8B8DFE01E80FAF
:10031000F11DE35AFF4FF0829FB7F8940B8FEA89E3
:10032000FB89808180620AC09FB7F894EE89FF89BB
:100330006083E889F98980818370806480839FBFAE
:1003400081E090E0DF91CF911F910F91FF90EF90AE
:100350000895CF93DF93EC01888D8823C9F0EA8953
:10036000FB89808185FD05C0A889B9898C9186FDAE
:100370000FC00FB607FCF5CF808185FFF2CFA889AB
:10038000B9898C9185FFEDCFCE010E943A01E7CF6C
:10039000DF91CF91089580E090E0892B29F00E94B1
:1003A000300181110C940000089590E0FC01EE589A
:1003B000FF4F2491FC01E255FF4F3491FC01E656BA
:1003C000FF4FE491EE23B9F1222339F1233091F06C
:1003D00038F42130A9F0223001F584B58F7D12C0A8
:1003E000273091F02830A1F02430B9F480918000BA
:1003F0008F7D03C0809180008F77809380000DC037
:1004000084B58F7784BD09C08091B0008F7703C019
:100410008091B0008F7D8093B000F0E0EE0FFF1F61
:10042000E859FF4FA591B491EC91E32381E090E06E
:1004300021F480E0089580E090E008958E3008F087
:100440008E508770806480937C0080917A008064F5
:1004500080937A0080917A0086FDFCCF80917800AD
:100460002091790090E0922B08953FB7F894809105
:100470002F0190913001A0913101B091320126B548
:10048000A89B05C02F3F19F00196A11DB11D3FBFCC
:10049000BA2FA92F982F8827820F911DA11DB11D5A
:1004A000BC01CD0142E0660F771F881F991F4A9556
:1004B000D1F708950E94A1070F931F93CF93DF9365
:1004C000EC0188819981009729F02A813B812617C8
:1004D000370788F48B016F5F7F4F0E94DB06009720
:1004E00061F0998388831B830A832C813D81232BB0
:1004F00011F4FC01108281E001C080E0DF91CF9116
:100500001F910F910895EF92FF920F931F93CF9336
:10051000DF936115710511F480E01CC04115510590
:10052000C1F07B01EC018C819D818A01080F191FAC
:10053000B801CE010E945C02882371F328813981C1
:100540008C819D81B701820F931F0E94AF071D838D
:100550000C8381E0DF91CF911F910F91FF90EF907D
:100560000895CF93DF93EC0188819981009711F072
:100570000E945206198218821D821C821B821A82D6
:10058000DF91CF910895EF92FF920F931F93CF9336
:10059000DF93EC017B018A01BA010E945C028111A8
:1005A00004C0CE010E94B10207C01D830C83B701B5
:1005B000888199810E94AF07CE01DF91CF911F9171
:1005C0000F91FF90EF9008951F920F920FB60F9228
:1005D00011242F933F934F935F936F937F938F9348
:1005E0009F93AF93BF93EF93FF9383E391E00E94B8
:1005F0003A01FF91EF91BF91AF919F918F917F91C0
:100600006F915F914F913F912F910F900FBE0F907F
:100610001F9018951F920F920FB60F9211242F93CF
:100620008F939F93EF93FF93E0914301F0914401E7
:100630008081E0914901F0914A0182FD12C09081D0
:1006400080914C018F5F8F7320914D01821751F083
:10065000E0914C01F0E0ED5CFE4F958F80934C01F2
:1006600001C08081FF91EF919F918F912F910F9009
:100670000FBE0F901F9018951F920F920FB60F92FA
:1006800011242F933F938F939F93AF93BF938091A8
:100690002B0190912C01A0912D01B0912E01309150
:1006A0002A0123E0230F2D3720F40196A11DB11D4F
:1006B00005C026E8230F0296A11DB11D20932A0133
:1006C00080932B0190932C01A0932D01B0932E01C8
:1006D00080912F0190913001A0913101B0913201B0
:1006E0000196A11DB11D80932F0190933001A0931D
:1006F0003101B0933201BF91AF919F918F913F91A2
:100700002F910F900FBE0F901F901895CF93DF93EE
:10071000CDB7DEB765970FB6F894DEBF0FBECDBF7D
:10072000789484B5826084BD84B5816084BD85B5CC
:10073000826085BD85B5816085BD80916E008160D8
:1007400080936E001092810080918100826080937E
:100750008100809181008160809381008091800080
:100760008160809380008091B10084608093B100AB
:100770008091B00081608093B00080917A008460A5
:1007800080937A0080917A00826080937A008091D1
:100790007A00816080937A0080917A0080688093EB
:1007A0007A001092C100E0914301F091440182E08F
:1007B0008083E0913F01F09140011082E09141017E
:1007C000F09142018FEC808310924B01E091470140
:1007D000F091480186E08083E0914501F091460167
:1007E000808180618083E0914501F09146018081A4
:1007F00088608083E0914501F091460180818068A6
:100800008083E0914501F091460180818F7D808356
:100810008FE08093D90180E18093DA0181E18093B8
:10082000DB0182E18093DC018CE08093DD018BE0D1
:100830008093DE018AE08093DF0189E08093E0010C
:100840008FE00E948C0080E10E948C0081E10E9478
:100850008C0082E10E948C008CE00E948C008BE076
:100860000E948C008AE00E948C0089E00E948C002B
:1008700069EDC62E61E0D62E8E010F5F1F4F80916D
:10088000D9010E941E029093D1018093D0018091E2
:10089000DA010E941E029093D3018093D2018091CD
:1008A000DB010E941E029093D5018093D4018091B8
:1008B000DC010E941E029093D7018093D6018091A3
:1008C000DD010E94D5017C018091DE010E94D501ED
:1008D00023E0EE0CFF1C2A95E1F7880F991F880F83
:1008E000991FBE2CB8268091DF010E94D5017C01A2
:1008F0008091E0010E94D501EE0CFF1C8B25E826BB
:10090000E092D801198A188A1B8A1A8A1D8A1C8AC1
:100910004AE050E068E171E0CE0140960E94C302D7
:1009200041E050E063E271E0CE0140960E94830214
:1009300050EDE52E51E0F52EF70181917F011B86E8
:100940001A861D861C861F861E864AE0B80190E026
:100950000E945305F80101900020E9F73197AF019B
:10096000401B510BB801CE010A960E94C3021A82A5
:1009700019821C821B821E821D826A857B856115FD
:10098000710529F04E855F85C8010E94C30241E0D0
:1009900050E065E271E0C8010E948302882309F4F7
:1009A00051C04D815E8169817A81CE0140960E945D
:1009B000830289819A810E9452068A859B850E94C2
:1009C0005206CE14DF0409F0B7CF4C895D896889DF
:1009D000798983E391E00E94C50042E050E067E23C
:1009E00071E083E391E00E94C500888999890E94A3
:1009F00052060E9435022B013C018AE0882E912C80
:100A0000A12CB12C0E943502DC01CB01841995097F
:100A1000A609B709883E9340A105B10598F3F1E016
:100A20008F1A9108A108B10828EE420E23E0521E49
:100A3000611C711C81149104A104B10419F70E9476
:100A4000CB011DCFC8010E94B102ABCFE3E3F1E0BF
:100A50001382128288EE93E0A0E0B0E08483958355
:100A6000A683B7838AE091E09183808385EC90E050
:100A70009587848784EC90E09787868780EC90E068
:100A8000918B808B81EC90E0938B828B82EC90E059
:100A9000958B848B86EC90E0978B868B118E128ED3
:100AA000138E148E0895BB27FB015527AA27880FA4
:100AB000991FAA1FA41710F0A41B83955051B9F7D2
:100AC000A05DAA3308F0A95DA193009779F7B11151
:100AD000B1931192CB010C946D05DC01FC01672FE1
:100AE00071917723E1F7329704C07C916D93708305
:100AF0006291AE17BF07C8F308952F923F924F92AD
:100B00005F926F927F928F929F92AF92BF92CF929D
:100B1000DF92EF92FF920F931F93CF93DF93CDB7A6
:100B2000DEB7CA1BDB0B0FB6F894DEBF0FBECDBF1E
:100B300009942A88398848885F846E847D848C84EF
:100B40009B84AA84B984C884DF80EE80FD800C81F8
:100B50001B81AA81B981CE0FD11D0FB6F894DEBFDB
:100B60000FBECDBFED010895EE0FFF1F0590F4916C
:100B7000E02D09940F931F93CF93DF93823091055B
:100B800010F482E090E0E091E301F091E40120E0D4
:100B900030E0A0E0B0E0309719F14081518102814E
:100BA000138148175907C8F08417950769F41097FF
:100BB00031F012960C93129713961C9327C0009352
:100BC000E3011093E40122C02115310519F0421709
:100BD000530718F49A01BD01EF01DF01F801DBCFE3
:100BE00021153105F9F0281B390B2430310580F42B
:100BF0008A819B816115710521F0FB0193838283BA
:100C000004C09093E4018093E301FE01329644C056
:100C1000FE01E20FF31F8193919322503109398332
:100C200028833AC02091E1013091E201232B41F465
:100C300020910201309103013093E2012093E10100
:100C400020910001309101012115310541F42DB7AA
:100C50003EB74091040150910501241B350BE091F2
:100C6000E101F091E201E217F307A0F42E1B3F0B24
:100C70002817390778F0AC014E5F5F4F241735070E
:100C800048F04E0F5F1F5093E2014093E1018193C2
:100C9000919302C0E0E0F0E0CF01DF91CF911F918E
:100CA0000F910895CF93DF93009709F481C0FC0161
:100CB000329713821282A091E301B091E401109760
:100CC00081F420813181820F931F2091E1013091C5
:100CD000E2012817390751F5F093E201E093E101B1
:100CE00067C0ED0120E030E0CE17DF0740F44A8115
:100CF0005B819E0141155105F1F0EA01F5CFD383E7
:100D0000C28340815181840F951FC817D90759F4B8
:100D100088819981840F951F0296918380838A81AF
:100D20009B81938382832115310529F4F093E4019B
:100D3000E093E3013DC0E901FB83EA8349915991C6
:100D4000C40FD51FEC17FD0761F480819181840FDA
:100D5000951F0296E90199838883828193819B8301
:100D60008A83E0E0F0E012968D919C9113970097B2
:100D700019F0FD01DC01F7CF8D919C9111979D0138
:100D80002E5F3F4F820F931F2091E1013091E201CE
:100D90002817390769F4309729F41092E40110926A
:100DA000E30102C013821282B093E201A093E10139
:100DB000DF91CF910895A0E0B0E0E1EEF6E00C9471
:100DC0008105EC01009721F4CB010E94BA05B4C063
:100DD000FC01E60FF71F9C0122503109E217F307CF
:100DE00008F4A8C0D9010D911C9111970617170797
:100DF000B0F00530110508F49BC0C80104978617B0
:100E0000970708F495C002501109061B170B0193B0
:100E100011936D937C93CF010E94520689C05B01B0
:100E2000A01AB10A4C01800E911EA091E301B0916D
:100E3000E401612C712CE12CF12C109709F446C0CF
:100E40008D919C911197A815B905B1F56C0142E0FF
:100E5000C40ED11CCA14DB0478F14C018A189B081B
:100E6000640142E0C40ED11C1296BC9012971396F6
:100E7000AC91B5E0CB16D10440F0B282A38391824D
:100E80008082D9016D937C9309C00E5F1F4F800F44
:100E9000911FF90191838083EB2DFA2FE114F10466
:100EA00031F0D7011396FC93EE93129741C0F09363
:100EB000E401E093E3013CC06816790608F43C01C4
:100EC0007D0112960D90BC91A02DB7CF8091E101CC
:100ED0009091E20188169906E1F466167706C8F447
:100EE0008091000190910101009741F48DB79EB768
:100EF0004091040150910501841B950BE817F907F7
:100F0000C8F4F093E201E093E101F9017183608399
:100F10000FC0CB010E94BA057C01009759F0A801CF
:100F2000BE010E94A607CE010E945206C70104C05E
:100F3000CE0102C080E090E0CDB7DEB7EEE00C94C9
:100F40009D0581E090E0F8940C94B607FB01DC016C
:100F500002C001900D9241505040D8F70895FB0116
:100F6000DC0101900D920020E1F70895F894FFCF85
:100F70000000E5018000000000005C01C500F300F6
:100F8000A901240102011601636F6E74726F6C6C0B
:0A0F90006572003A002D000D0A0002
:107E0000112484B714BE81FFF0D085E080938100F7
:107E100082E08093C00088E18093C10086E0809377
:107E2000C20080E18093C4008EE0C9D0259A86E02C
:107E300020E33CEF91E0309385002093840096BBD3
:107E4000B09BFECF1D9AA8958150A9F7CC24DD24C4
:107E500088248394B5E0AB2EA1E19A2EF3E0BF2EE7
:107E6000A2D0813461F49FD0082FAFD0023811F036
:107E7000013811F484E001C083E08DD089C08234E0
:107E800011F484E103C0853419F485E0A6D080C0E4
:107E9000853579F488D0E82EFF2485D0082F10E0AE
:107EA000102F00270E291F29000F111F8ED06801E7
:107EB0006FC0863521F484E090D080E0DECF843638
:107EC00009F040C070D06FD0082F6DD080E0C81688
:107ED00080E7D80618F4F601B7BEE895C0E0D1E017
:107EE00062D089930C17E1F7F0E0CF16F0E7DF06D8
:107EF00018F0F601B7BEE89568D007B600FCFDCFD4
:107F0000A601A0E0B1E02C9130E011968C91119780
:107F100090E0982F8827822B932B1296FA010C0160
:107F200087BEE89511244E5F5F4FF1E0A038BF0790
:107F300051F7F601A7BEE89507B600FCFDCF97BE46
:107F4000E89526C08437B1F42ED02DD0F82E2BD052
:107F50003CD0F601EF2C8F010F5F1F4F84911BD097
:107F6000EA94F801C1F70894C11CD11CFA94CF0C13
:107F7000D11C0EC0853739F428D08EE10CD085E9AC
:107F80000AD08FE07ACF813511F488E018D01DD067
:107F900080E101D065CF982F8091C00085FFFCCF94
:107FA0009093C60008958091C00087FFFCCF809118
:107FB000C00084FD01C0A8958091C6000895E0E648
:107FC000F0E098E1908380830895EDDF803219F02E
:107FD00088E0F5DFFFCF84E1DECF1F93182FE3DFCA
:107FE0001150E9F7F2DF1F91089580E0E8DFEE27F6
:047FF000FF270994CA
:027FFE00040479
:0400000300007E007B
:00000001FF