:100000000C9462000C948A000C948A000C948A0070
:100010000C948A000C948A000C948A000C948A0038
:100020000C948A000C948A000C948A000C948A0028
:100030000C948A000C948A000C948A000C948A0018
:100040000C94FD020C948A000C94CB020C94A50233
:100050000C948A000C948A000C948A000C948A00F8
:100060000C948A000C948A000000000023002600F3
:10007000290000000008000201000003040700003E
:1000800000000000000000000000250028002B00F8
:1000900000000000240027002A00040404040404D3
:1000A0000404020202020202030303030303010227
:1000B00004081020408001020408102001020408F6
:1000C0001020EA0411241FBECFEFD8E0DEBFCDBF61
:1000D00021E0AAE2B1E001C01D92A23EB207E1F721
:1000E00011E0A0E0B1E0E4EEFEE002C005900D9268
:1000F000AA32B107D9F710E0C2E6D0E004C02197D8
:10010000FE010E947805C136D107C9F70E94470356
:100110000C9470070C940000CF93DF93EEEAF0E0AC
:100120009491EAE9F0E024912223D1F030E0220F0B
:10013000331FF901E057FF4FA591B491F901EA5738
:10014000FF4FC591D491823071F42FB7F8943C9150
:10015000892F809583238C93E881E92BE8832FBF37
:10016000DF91CF9108958FB7F894EC91E92BEC9340
:100170008FBFF6CFAF92BF92CF92DF92EF92FF92F6
:100180000F931F93CF93DF936C017B018B01040FBF
:10019000151FEB015E01AE18BF08C017D10759F05B
:1001A0006991D601ED91FC910190F081E02DC6019D
:1001B0000995892B79F7C501DF91CF911F910F9197
:1001C000FF90EF90DF90CF90BF90AF900895FC012B
:1001D000538D448D252F30E0842F90E0821B930BAC
:1001E000541710F0CF96089501970895FC01918D52
:1001F000828D981761F0A28DAE0FBF2FB11D5D9655
:100200008C91928D9F5F9F73928F90E008958FEFF6
:100210009FEF0895FC01918D828D981731F0828DAA
:10022000E80FF11D858D90E008958FEF9FEF089501
:10023000FC01918D228D892F90E0805C9F4F821B65
:1002400091098F739927089583E391E00E94180123
:1002500021E0892B09F420E0822F089580E090E0CE
:10026000892B29F00E94240181110C94000008952B
:10027000FC01A48DA80FB92FB11DA35ABF4F2C911B
:10028000848D90E001968F739927848FA689B78912
:100290002C93A089B1898C91837080648C93938D09
:1002A000848D981306C00288F389E02D80818F7DAC
:1002B00080830895EF92FF920F931F93CF93DF9364
:1002C000EC0181E0888F9B8D8C8D98131AC0E88992
:1002D000F989808185FF15C09FB7F894EE89FF8961
:1002E0006083E889F98980818370806480839FBFFF
:1002F00081E090E0DF91CF911F910F91FF90EF90FF
:100300000895F62E0B8D10E00F5F1F4F0F7311270E
:10031000E02E8C8D8E110CC00FB607FCFACFE88949
:10032000F989808185FFF5CFCE010E943801F1CF98
:10033000EB8DEC0FFD2FF11DE35AFF4FF0829FB7BD
:10034000F8940B8FEA89FB8980818062CFCFCF93AD
:10035000DF93EC01888D8823B9F0AA89BB89E889ED
:10036000F9898C9185FD03C0808186FD0DC00FB693
:1003700007FCF7CF8C9185FFF2CF808185FFEDCF11
:10038000CE010E943801E9CFDF91CF91089590E02E
:10039000FC01EE58FF4F2491FC01E255FF4F3491D0
:1003A000FC01E656FF4FE491EE23C1F1222339F020
:1003B0002330E9F090F4213001F1223011F1F0E026
:1003C000EE0FFF1FE859FF4FA591B491EC91E32385
:1003D00081E090E029F580E008952730A9F02830E9
:1003E000C9F0243061F7809180008F7D03C0809137
:1003F00080008F7780938000E2CF84B58F7784BDB3
:10040000DECF84B58F7DFBCF8091B0008F77809356
:10041000B000D5CF8091B0008F7DF9CF80E090E023
:1004200008958E3008F08E508770806480937C0031
:1004300080917A00806480937A0080917A0086FDB2
:10044000FCCF809178009091790008950F931F93CD
:10045000CF93DF93EC0188819981009759F02A812D
:100460003B812617370730F081E0DF91CF911F9154
:100470000F9108958B016F5F7F4F0E94A306009735
:1004800059F0998388831B830A832C813D81232B18
:1004900059F7FC011082E8CF80E0E7CFEF92FF929E
:1004A0000F931F93CF93DF936115710541F480E0A3
:1004B000DF91CF911F910F91FF90EF90089541151B
:1004C0005105B1F07B01EC010C811D81040F151F5A
:1004D000B8010E942602882351F3288139818C813A
:1004E0009D81B701820F931F0E9469071D830C83B2
:1004F00081E0DECFEF92FF920F931F93CF93DF93B4
:10050000EC017B018A01BA010E942602288139810F
:10051000811114C02115310519F0C9010E941A0674
:10052000198218821D821C821B821A82CE01DF91E1
:10053000CF911F910F91FF90EF9008951D830C8331
:10054000B701C9010E946907F1CF1F920F920FB640
:100550000F9211242F933F934F935F936F937F9349
:100560008F939F93AF93BF93EF93FF9383E391E0B8
:100570000E943801FF91EF91BF91AF919F918F91B0
:100580007F916F915F914F913F912F910F900FBE8F
:100590000F901F9018951F920F920FB60F92112473
:1005A0002F938F939F93EF93FF93E0914301F091EB
:1005B00044018081E0914901F0914A0182FD1BC014
:1005C000908180914C018F5F8F7320914D01821734
:1005D00041F0E0914C01F0E0ED5CFE4F958F80938F
:1005E0004C01FF91EF919F918F912F910F900FBE32
:1005F0000F901F9018958081F4CF1F920F920FB625
:100600000F9211242F933F938F939F93AF93BF9398
:1006100080912F0190913001A0913101B091320170
:1006200030912E0123E0230F2D3758F50196A11D9F
:10063000B11D20932E0180932F0190933001A09340
:100640003101B093320180912A0190912B01A09148
:100650002C01B0912D010196A11DB11D80932A019D
:1006600090932B01A0932C01B0932D01BF91AF91DA
:100670009F918F913F912F910F900FBE0F901F90E0
:10068000189526E8230F0296A11DB11DD2CFCF9356
:10069000DF93CDB7DEB765970FB6F894DEBF0FBE18
:1006A000CDBF789484B5826084BD84B5816084BDFB
:1006B00085B5826085BD85B5816085BD80916E0000
:1006C000816080936E001092810080918100826031
:1006D000809381008091810081608093810080916E
:1006E00080008160809380008091B100846080935D
:1006F000B1008091B00081608093B00080917A0059
:10070000846080937A0080917A00826080937A007E
:1007100080917A00816080937A0080917A0080686D
:1007200080937A001092C100E0914301F09144015E
:1007300022E02083E0913F01F09140011082E0919E
:100740004101F091420182EB808310924B01E091D4
:100750004701F091480196E09083E0914501F091C6
:100760004601808180618083E0914501F0914601DE
:10077000808188608083E0914501F091460180810D
:1007800080688083E0914501F091460180818F7DF2
:1007900080838EE08093D5018FE08093D6012093F3
:1007A000D70183E08093D80184E08093D90185E06C
:1007B0008093DA019093DB0187E08093DC0188E08D
:1007C0008093DD018EE00E948C008FE00E948C00FF
:1007D00082E00E948C0083E00E948C0084E00E94F2
:1007E0008C0085E00E948C0086E00E948C0087E0EF
:1007F0000E948C0088E00E948C008E010F5F1F4FCA
:10080000F0E06F2EF0E07F2E8091D5010E94110262
:100810009093D1018093D0018091D6010E94110262
:100820009093D3018093D2018091D7010E94C70198
:100830004C018091D8010E94C70126E0880C991CC8
:100840002A95E1F735E0880F991F3A95E1F7582C82
:1008500058268091D9010E94C7014C018091DA018C
:100860000E94C7015C018091DB010E94C7016C01FD
:100870008091DC010E94C7017C018091DD010E9412
:10088000C701940144E0220F331F4A95E1F7852CFC
:100890008826822653E0AA0CBB1C5A95E1F7A824AF
:1008A000CC0CDD1CCC0CDD1CCA24EE0CFF1CEC2493
:1008B000E092D401198A188A1B8A1A8A1D8A1C8A16
:1008C0004AE050E068E171E0CE0140960E947A0271
:1008D00041E050E063E271E0CE0140960E944E029A
:1008E000E0EDEE2EE1E0FE2EF70181917F011B8607
:1008F0001A861D861C861F861E864AE0B80190E077
:100900000E941705F80101900020E9F73197AF0127
:10091000401B510BB801CE010A960E947A021A823E
:1009200019821C821B821E821D826A857B8561154D
:10093000710529F04E855F85C8010E947A0241E069
:1009400050E065E271E0C8010E944E0281110CC0C6
:1009500089819A81009711F00E941A061A821982E1
:100960001E821D821C821B824D815E8169817A817B
:10097000CE0140960E944E0289819A810E941A06F9
:100980008A859B850E941A06F5EDEF16F1E0FF06B9
:1009900009F0AACF4C895D896889798983E391E060
:1009A0000E94BA0042E050E067E271E083E391E028
:1009B0000E94BA00888999890E941A0661147104FC
:1009C00009F422CF0E942401882309F41DCF0E943C
:1009D00000001ACFE3E3F1E01382128288EE93E085
:1009E000A0E0B0E084839583A683B7838AE091E09A
:1009F0009183808385EC90E09587848784EC90E0F8
:100A00009787868780EC90E0918B808B81EC90E0DB
:100A1000938B828B82EC90E0958B848B86EC90E0BC
:100A2000978B868B118E128E138E148E0895BB2792
:100A3000FB015527AA27880F991FAA1FA41710F09A
:100A4000A41B83955051B9F7A05DAA3308F0A95DA6
:100A5000A193009779F7B111B1931192CB010C9446
:100A60003105DC01FC01672F71917723E1F73297A3
:100A700004C07C916D9370836291AE17BF07C8F379
:100A800008952F923F924F925F926F927F928F9232
:100A90009F92AF92BF92CF92DF92EF92FF920F930D
:100AA0001F93CF93DF93CDB7DEB7CA1BDB0B0FB617
:100AB000F894DEBF0FBECDBF09942A8839884888D4
:100AC0005F846E847D848C849B84AA84B984C8846A
:100AD000DF80EE80FD800C811B81AA81B981CE0F61
:100AE000D11D0FB6F894DEBF0FBECDBFED01089546
:100AF000EE0FFF1F0590F491E02D09940F931F93C3
:100B0000CF93DF938230910510F482E090E0E09182
:100B1000E001F091E10130E020E0B0E0A0E03097AA
:100B200099F42115310509F44AC0281B390B2430EA
:100B30003105D8F58A819B816115710589F1FB0129
:100B400093838283FE0111C0408151810281138110
:100B500048175907E0F04817590799F4109761F0C2
:100B600012960C93129713961C933296CF01DF9135
:100B7000CF911F910F9108950093E0011093E1012F
:100B8000F4CF2115310551F04217530738F0A90170
:100B9000DB019A01BD01DF01F801C1CFEF01F9CFFF
:100BA0009093E1018093E001CDCFFE01E20FF31FAE
:100BB000819391932250310939832883D7CF209193
:100BC000DE013091DF01232B41F4209102013091AD
:100BD00003013093DF012093DE0120910001309169
:100BE00001012115310541F42DB73EB740910401B3
:100BF00050910501241B350BE091DE01F091DF01DE
:100C0000E217F307A0F42E1B3F0B2817390778F0E3
:100C1000AC014E5F5F4F2417350748F04E0F5F1F42
:100C20005093DF014093DE01819391939FCFF0E0D9
:100C3000E0E09CCFCF93DF930097E9F0FC0132977F
:100C400013821282A091E001B091E101ED0130E048
:100C500020E01097A1F420813181820F931F209111
:100C6000DE013091DF012817390709F061C0F093E8
:100C7000DF01E093DE01DF91CF910895EA01CE1705
:100C8000DF07E8F54A815B819E0141155105B1F707
:100C9000E901FB83EA8349915991C40FD51FEC17F1
:100CA000FD0761F4808191810296840F951FE9010F
:100CB00099838883828193819B838A83F0E0E0E03B
:100CC00012968D919C9113970097B9F52D913C91B7
:100CD0001197CD010296820F931F2091DE01309172
:100CE000DF012817390739F6309751F51092E101E5
:100CF0001092E001B093DF01A093DE01BCCFD3835B
:100D0000C28340815181840F951FC817D90761F4B0
:100D10004E5F5F4F88819981480F591F51834083EF
:100D20008A819B81938382832115310509F0B0CF9D
:100D3000F093E101E093E0019ECFFD01DC01C0CF23
:100D400013821282D7CFB0E0A0E0E9EAF6E00C947B
:100D500043058C01009751F4CB010E947E058C0164
:100D6000C801CDB7DEB7E0E10C945F05FC01E60FEA
:100D7000F71F9C0122503109E217F30708F49DC0C8
:100D8000D901CD91DC911197C617D70798F0C530DE
:100D9000D10530F3CE0104978617970708F3C61BD9
:100DA000D70B2297C193D1936D937C93CF010E946F
:100DB0001A06D6CF5B01AC1ABD0A4C018C0E9D1EE3
:100DC000A091E001B091E101512C412CF12CE12CDA
:100DD000109731F58091DE019091DF01881599051A
:100DE00009F05CC04616570608F058C08091000113
:100DF00090910101009741F48DB79EB74091040195
:100E000050910501841B950BE817F90708F055C0B0
:100E1000F093DF01E093DE01F90171836083A0CFDD
:100E20008D919C91119712966C90129713967C90CD
:100E30001397A815B90559F56C0142E0C40ED11CF1
:100E4000CA14DB0420F1AC014A195B09DA011296DD
:100E5000159780F06282738251834083D9016D932C
:100E60007C93E114F10471F0D7011396FC93EE9397
:100E7000129776CF22968C0F9D1FF9019183808364
:100E8000F301EFCFF093E101E093E00169CF481661
:100E9000590608F42C017D01D3019ACFCB010E94A1
:100EA0007E057C01009749F0AE01B8010E94600701
:100EB000C8010E941A06870153CF10E000E050CF0E
:100EC000FB01DC0102C001900D9241505040D8F767
:100ED0000895FB01DC0101900D920020E1F70895D7
:040EE000F894FFCFB4
:100EE4000000E2018000000000005A01BA00E7009F
:100EF400A7011801F6000A01636F6E74726F6C6CBF
:0A0F04006572003A002D000D0A008E
:00000001FF
